:02000002D0002C
:1040000000400D00A4560D00000006000C00050144
:0840100004017E050000000020
:04401800C8520D007D
:10401C0009480A49884208B505D0094A824202D0AB
:10402C00121A01F007F90748074A0021121A01F089
:10403C000CF9014808BD00BF58E4032010560D00D0
:10404C00C4E40320C4E40320F0E7032070B500F0BF
:10405C0081FB074C074BE41AA40800251E46A54219
:10406C0004D056F8253098470135F8E770BD00BFED
:10407C0004560D00C8550D0000F016B808B500F038
:10408C0021F8BDE8084000F033BB00F007BA00F09F
:10409C000DBA00F00BBA0078B0FA80F04009704706
:1040AC00012303707047000010B5054C01212088D6
:1040BC0000F0F6FE20880021BDE8104000F001BFA2
:1040CC0058E4032010B5214C0121208800F0F9FEA2
:1040DC004FF4FA6000F0CEFA0021208800F0F1FED7
:1040EC004FF4FA7000F0C6FA0121208800F0E9FEC6
:1040FC004FF47A7000F0BEFA0021208800F0E1FE47
:10410C004FF4FA7000F0B6FA0121208800F0D9FEC5
:10411C004FF47A7000F0AEFA0021208800F0D1FE46
:10412C004FF4FA7000F0A6FA0121208800F0C9FEC5
:10413C004FF4FA6000F09EFA2088002100F0C1FED6
:10414C004FF47A60BDE8104000F094BA58E40320B4
:10415C0000F010B808B5024B1B689B68019308BDB2
:10416C006802030008B5024B1B68DB68019308BDAD
:10417C006802030008B5024B1B681B68019308BD5D
:10418C002C02030008B5024B1B689B68019308BD09
:10419C002C02030008B5024B1B68DB68019308BDB9
:1041AC002C02030008B5024B1B681B69019308BD68
:1041BC002C02030008B5024B1B68DB69019308BD98
:1041CC003002030008B5024B1B681B6A019308BD43
:1041DC003002030008B5024B1B685B68019308BDF5
:1041EC001802030008B5024B1B685B69019308BDFC
:1041FC001802030008B5024B1B689B68019308BDAD
:10420C004802030008B5024B1B681B69019308BDEB
:10421C004802030008B5024B1B685B69019308BD9B
:10422C004802030008B5024B1B681B6B019308BDC9
:10423C004802030008B5024B1B685B6C019308BD78
:10424C004802030008B5024B1B685B69019308BD6B
:10425C006402030008B5024B1B681B68019308BD80
:10426C003C02030008B5024B1B68DB68019308BDD8
:10427C003C02030008B5024B1B681B69019308BD87
:10428C003C02030008B5024B1B685B69019308BD37
:10429C003C02030008B5024B1B689B69019308BDE7
:1042AC003C02030008B5024B1B68DB69019308BD97
:1042BC003C02030008B5024B1B681B6A019308BD46
:1042CC003C02030008B5024B1B689B6A019308BDB6
:1042DC003C02030008B5024B1B681B6A019308BD26
:1042EC002802030008B5024B1B685B6A019308BDEA
:1042FC002802030008B5024B1B689B6A019308BD9A
:10430C002802030008B5024B1B68DB6A019308BD49
:10431C002802030008B5024B1B681B6B019308BDF8
:10432C002802030008B5024B1B685B6B019308BDA8
:10433C002802030008B5024B1B681B6C019308BDD7
:10434C002802030008B5024B1B681B68019308BDCB
:10435C004C02030008B5024B1B681B69019308BD96
:10436C004C02030008B5024B1B685B69019308BD46
:10437C004C02030008B5024B1B689B69019308BDF6
:10438C004C02030008B5024B1B68DB69019308BDA6
:10439C004C02030008B5024B1B681B6A019308BD55
:1043AC004C02030008B5024B1B685B68019308BD07
:1043BC002002030008B5024B1B685B69019308BD22
:1043CC002002030008B5034B1B68D3F88830019317
:1043DC0008BD00002002030008B5034B1B68D3F88E
:1043EC009430019308BD00002002030008B5024B75
:1043FC001B685B68019308BD4002030008B5024BC3
:10440C001B689B68019308BD4002030008B5024B72
:10441C001B68DB68019308BD4002030008B5024B22
:10442C001B681B69019308BD4002030008B5024BD1
:10443C001B685B69019308BD4002030008B5024B81
:10444C001B689B69019308BD4002030008B5024B31
:10445C001B68DB69019308BD4002030008B5024BE1
:10446C001B681B6A019308BD4002030008B5024B90
:10447C001B681B6B019308BD4002030008B5024B7F
:10448C001B685B6B019308BD4002030008B5024B2F
:10449C001B68DB6B019308BD4402030008B5024B9B
:1044AC001B681B68019308BD1C02030008B5024B76
:1044BC001B685B68019308BD1C02030000221146B7
:1044CC004068FFF7CBBF002211464068FFF7D6BF0C
:1044DC0000224068FFF7CABF002281F0010140684A
:1044EC00FFF7B4BF00231A4619464068FFF7A6BF72
:1044FC0000231A4619464068FFF798BF0022114660
:10450C004068FFF78BBF002211464068FFF776BF6B
:10451C00002202214068FFF779BF00231A46406849
:10452C00FFF764BF024B03225A60024A1A607047BD
:10453C00C8E40320E4520D00704710B51021044666
:10454C0000F01FFD204610BD70B5084B03600446FB
:10455C0000250E4640F80C5FFFF764FE30462671CE
:10456C00FFF728FEA560204670BD00BF18530D0054
:10457C000079FFF727BE0000044B00204FF6FF72B6
:10458C00187058809A80FFF70DBF00BFD0E403204D
:10459C00024800230360FFF74DBE00BFD8E40320A0
:1045AC00F8B506460D468F180024BD420CD0336872
:1045BC0015F8011B9B6830469847002801DB044422
:1045CC00F3E7002C08BF04462046F8BD70B505463D
:1045DC000C46084649B100F069FE2B68024621469C
:1045EC002846DB68BDE87040184770BD03689B68BF
:1045FC00184730B58BB00B4600218DF82410012ADA
:10460C0098BF0A220DF12304B3FBF2F505FB12331C
:10461C0003F0FF03092B94BF30333733DBB2214651
:10462C0004F801392B46002DEED1FFF7CFFF0BB06C
:10463C0030BD10B42AB903685DF8044B9B68C9B24D
:10464C001847D2B25DF8044BFFF7D3BFFFF7F1BFA9
:10465C00014B024A1A607047DCE4032093530D00AF
:10466C00024B1A68024B1A60704700BF5CE40320CF
:10467C00E0E403200021FFF79DBE10B583680446DB
:10468C0013B1032201469847204610BD10B50446CD
:10469C00FFF7F3FF204610BD0348044A04490023EA
:1046AC00836000F069BC00BFE4E40320C4E4032091
:1046BC0099460D0008B50C4B33B100F035F9036881
:1046CC001B699847002809DC084B63B100F0AEF970
:1046DC0003681B699847002803DC08BDAFF3008012
:1046EC00F2E7AFF3008008BD0000000000000000FE
:1046FC0008B5FFF7DFFFFFF775FD014B186008BD2C
:10470C0034E7032007B5002300931A466FF07701B6
:10471C00FFF762FE03B05DF804FB000007B54388A9
:10472C000A2B08D0502B09D1094B1B683BB103B0A5
:10473C005DF804EB1847FFF7E5FF06E00023009354
:10474C001A466FF07701FFF747FE03B05DF804FBE4
:10475C00F4E4032010B5FFF73DFD044600F07EFDA8
:10476C00074B13B12046AFF3008000210448FFF73C
:10477C008DFE00210348BDE81040FFF723BE00BFAB
:10478C000000000029470D00704710B518210446A1
:10479C0000F0F7FB204610BDF0B5037D062B8DB065
:1047AC000E4600F104074FF0000402D000F108059A
:1047BC0018E00CAD394605F8304D2F232A460A2057
:1047CC00FFF740FD284600F071FD33680246DB68B8
:1047DC002946304698470FE024B12E213046FFF78A
:1047EC0005FF044415F8011D0A223046FFF72EFF81
:1047FC00BD420444F0D120460DB0F0BD10B5054BC0
:10480C000446112240F8043B002100F01EFD204616
:10481C0010BD00BF34540D000346074A10B543F8D1
:10482C00042B01F1100251F8044B43F8044B914254
:10483C00F9D10A781A7010BD34540D0010B59DF8DA
:10484C00084044EA032343EA024242EA016104239A
:10485C004160037510BD37B50D788B784A78C978EF
:10486C0000912946FFF7EAFF03B030BD4174704751
:10487C00704708B50021007CFFF77CFD30EA200072
:10488C0028BF4FF0FF3008BD08B50121007CFFF7B1
:10489C0071FD30EA200028BF4FF0FF3008BD08B58D
:1048AC00007CFFF75FFD20EAE07008BD08B5007CD6
:1048BC00FFF750FD20EAE07008BD007CFFF76ABDF1
:1048CC0010B51421044600F05CFB204610BD38B531
:1048DC000446007C0D46FFF745FD002801DC607C9A
:1048EC0028B12946207CFFF74DFD20EAE07038BD49
:1048FC0010B50446002363604FF47A73A360054B34
:10490C00236001230846217463741146FFF71AFDD6
:10491C00204610BD48540D0010B514220446002149
:10492C0000F093FC204610BD30B50E4D87B001A8A9
:10493C00FFF7F2FF296811F0010410D12846FFF7A8
:10494C00AAFB60B101AA21460748FFF7D1FF284610
:10495C00FFF7A6FB054A0649034800F00DFB024889
:10496C0007B030BDF8E40320FCE40320C4E40320CA
:10497C007D480D0070474174704708B5007CFFF707
:10498C00A1FC20EAE07008BD08B5007CFFF772FCC2
:10499C0020EAE07008BD08B5007CFFF77BFC30EA2C
:1049AC00200028BF4FF0FF3008BD08B5007CFFF792
:1049BC0069FC30EA200028BF4FF0FF3008BD007CB6
:1049CC00FFF770BC10B51421044600F0DAFA20464B
:1049DC0010BD70B5457C04460E4625B9007CFFF72A
:1049EC0071FC002805DD3146207CBDE87040FFF7E6
:1049FC0039BC284670BD000010B504460846114667
:104A0C00002262604FF47A72A260054A2260012291
:104A1C00207462741A46FFF71DFC204610BD00BFBF
:104A2C0078540D00007CFFF745BC0000F8B5194C1C
:104A3C0025684DB98420FFF728FB064618B184225F
:104A4C00294600F002FC2660134D2E684EB98420D6
:104A5C00FFF71BFB074618B18422314600F0F5FB2B
:104A6C002F600E4F396811F0010611D13846FFF74F
:104A7C0012FB68B122682B6809483146FFF7BCFF6E
:104A8C003846FFF70DFB074A0749054800F074FA52
:104A9C000348F8BD2CE5032024E5032028E503207A
:104AAC0010E50320C4E4032081490D007047F8B5DC
:104ABC00064615460C468F18BC4206D0336814F8CF
:104ACC00011B9B6830469847F6E72846F8BD002244
:104ADC00007CFFF7FFBB0021007CFFF703BC00212B
:104AEC00007CFFF707BC0021007CFFF70BBC00210A
:104AFC00007CFFF70FBC10B51421044600F041FAFE
:104B0C00204610BD10B504464FF47A730846A360D6
:104B1C000021044B207461602360FFF70BFC2046DE
:104B2C0010BD00BFA8540D000021007CFFF7FABB9C
:104B3C00002211464068FFF791BC002211464068E4
:104B4C00FFF79CBC00224068FFF790BC002281F06C
:104B5C0001014068FFF77ABC00231A460121406826
:104B6C00FFF76CBC00231A4619464068FFF75EBC81
:104B7C00002211464068FFF751BC002211464068E4
:104B8C00FFF73CBC002202214068FFF73FBC00232A
:104B9C001A464068FFF72ABC38B5054688B1046848
:104BAC004CB1A3681BB10322214620469847102123
:104BBC00204600F0E6F928461421BDE8384000F004
:104BCC00E0B938BD10B103685B681847704710B581
:104BDC0003680446BBB15868FFF70CFB78B923682F
:104BEC005A7C12B95868FFF70DFB23685868FFF719
:104BFC0011FB20680023236028B1FFF7CDFF20684C
:104C0C0008B1FFF7C9FF204610BD000038B50C4BAA
:104C1C0003600446D0F8CC0108B1FFF73AFAD4F897
:104C2C00C45135B12846FFF7D2FF0421284600F0C5
:104C3C00A8F9A06808B1FFF7C5FF204638BD00BF32
:104C4C00D0540D0038B50E4C0E4B236000250223BA
:104C5C0004F5E4706360A560C4F8C451C4F8C8518D
:104C6C00FFF7E8FA084BC4F8CC5184F8D051236014
:104C7C002046064A0649BDE8384000F07DB900BF21
:104C8C0030E5032038550D00D0540D00C4E403204A
:104C9C00194C0D00002211464068FFF7BFBB0022E3
:104CAC0011464068FFF7DABB002211464068FFF757
:104CBC00E5BB00224068FFF7D9BB002281F001015F
:104CCC004068FFF7C3BB00231A4619464068FFF73C
:104CDC00B5BB00231A4619464068FFF7A7BB002254
:104CEC0011464068FFF78ABB002202214068FFF79B
:104CFC008DBB00231A464068FFF778BB024B042299
:104D0C005A60024A1A60704704E7032004550D00EC
:104D1C0000231A464068FFF769BB00220221406855
:104D2C00FFF774BB002211464068FFF767BB0022F7
:104D3C0011464068FFF772BB00231A4619464068BB
:104D4C00FFF774BB00231A4619464068FFF776BB81
:104D5C00002281F001014068FFF778BB0022406817
:104D6C00FFF784BB002211464068FFF787BB002287
:104D7C0011464068FFF772BB2DE9F043002495B053
:104D8C0016460D460746FFF739FD214620220CA892
:104D9C00009400F05AFA40230C9321466B460CAA5F
:104DAC003046FFF7DFF90446002844D102460121C2
:104DBC006868FFF733FB0221804622466868FFF7DC
:104DCC002DFB009E81462146002E34D0002932D185
:104DDC007368022B02D00A2B09D02AE0B8F1000F1D
:104DEC0027D0716938460431FFF735FD20E0B9F161
:104DFC00000F1ED07469112201A800F026FA0623B8
:104E0C008DF8143001AD04F1080318341868596892
:104E1C002A4603C20833A3421546F7D101A906A8B6
:104E2C0007ADFFF7F9FC0FCD3C1D0FC42B682370A9
:104E3C000121F669C8E70098FFF78CF9384615B0E0
:104E4C00BDE8F083024B034A1A6000225A60704797
:104E5C000CE7032038550D0010B504460F48FFF73A
:104E6C0087FB28B1A4F10B03022B01D8002010BD45
:104E7C0000F062F8FFF758FE08B1012CF6D9FFF7E5
:104E8C00D5FDFFF7CFFD18B1A4F10903012BEDD926
:104E9C00232C8CBF0020012010BD00BF14E7032081
:104EAC00232838B504460D460AD8FF2908D0FFF749
:104EBC00D3FF28B129462046BDE83840FFF762B938
:104ECC0038BD38B504460D46FFF764F9FF2810D0FD
:104EDC00062804D84D2323FA00F0C30709D4204632
:104EEC00FFF7BAFF28B129462046BDE83840FFF746
:104EFC0059B938BD70B50C4C0C4E0D4D00212046E7
:104F0C00FFF722FB20460B4C3246294600F034F8C2
:104F1C0001212046FFF718FB324629462046BDE802
:104F2C00704000F029B800BF14E70320C4E403204C
:104F3C0045450D0024E7032038B50B4D296811F0C9
:104F4C0001040FD12846FFF7A6F858B121460748AF
:104F5C00FFF7D8FD2846FFF7A3F8054A0549034893
:104F6C0000F00AF8014838BD38E703203CE703207D
:104F7C00C4E40320B94A0D000B460146184600F064
:104F8C004BB9FFF784B80000184B1A68D1075CBF07
:104F9C0001221A60164B1A68D2075CBF01221A60F4
:104FAC00144B1A68D0075CBF01221A60124B1A68A6
:104FBC00D1075CBF01221A60104B1A68D2075CBF84
:104FCC0001221A600E4B1A68D0075CBF01221A60CE
:104FDC000C4B1A68D1075CBF01221A600A4B1A6885
:104FEC00D2075CBF01221A60704700BF6CE7032038
:104FFC0068E7032064E7032060E703205CE70320F5
:10500C0058E7032054E7032050E70320244B1A6889
:10501C00D0075CBF01221A60224B1A68D1075CBF13
:10502C0001221A60204B1A68D2075CBF01221A6059
:10503C001E4B1A68D0075CBF01221A601C4B1A6801
:10504C00D1075CBF01221A601A4B1A68D2075CBFE9
:10505C0001221A60184B1A68D0075CBF01221A6033
:10506C00164B1A68D1075CBF01221A60144B1A68E0
:10507C00D2075CBF01221A60124B1A68D0075CBFC2
:10508C0001221A60104B1A68D1075CBF01221A600A
:10509C000E4B1A68D2075CBF01221A60704700BF22
:1050AC009CE7032098E7032094E7032090E7032074
:1050BC008CE7032088E7032084E7032080E70320A4
:1050CC007CE7032078E7032074E7032070E70320D4
:1050DC00244B1A68D0075CBF01221A60224B1A6855
:1050EC00D1075CBF01221A60204B1A68D2075CBF43
:1050FC0001221A601E4B1A68D0075CBF01221A608D
:10510C001C4B1A68D1075CBF01221A601A4B1A6833
:10511C00D2075CBF01221A60184B1A68D0075CBF1B
:10512C0001221A60164B1A68D1075CBF01221A6063
:10513C00144B1A68D2075CBF01221A60124B1A6812
:10514C00D0075CBF01221A60104B1A68D1075CBFF4
:10515C0001221A600E4B1A68D2075CBF01221A603A
:10516C00704700BFCCE70320C8E70320C4E7032047
:10517C00C0E70320BCE70320B8E70320B4E7032013
:10518C00B0E70320ACE70320A8E70320A4E7032043
:10519C00A0E70320184B1A68D1075CBF01221A60E4
:1051AC00164B1A68D2075CBF01221A60144B1A689E
:1051BC00D0075CBF01221A60124B1A68D1075CBF82
:1051CC0001221A60104B1A68D2075CBF01221A60C8
:1051DC000E4B1A68D0075CBF01221A600C4B1A6880
:1051EC00D1075CBF01221A600A4B1A68D2075CBF58
:1051FC0001221A60704700BFECE70320E8E70320A8
:10520C00E4E70320E0E70320DCE70320D8E70320F2
:10521C00D4E70320D0E7032010B5054C13462CB17E
:10522C000A4601460220AFF3008010BD204610BD97
:10523C000000000010B5431E0A44914204D011F83E
:10524C00014B03F8014FF8E710BD024403469342AB
:10525C0002D003F8011BFAE77047000038B5124B77
:10526C001C68A36B0546D3B91820FFF717F943F256
:10527C000E33A06303804AF6CD33438041F23423CE
:10528C0083804EF26D63C3804DF6EC63038105237E
:10529C0043810B23838101220023C0E90423A36BE8
:1052AC0000221D615A6138BDC0E40320034613F887
:1052BC00012B002AFBD1181A013870471D400D0034
:1052CC0059400D0085400D0089400D000000000084
:1052DC00000000000000000027450D001D450D00DA
:1052EC0013450D0009450D00FD440D00F1440D0062
:1052FC00E5440D00DD440D00D3440D00C9440D0000
:10530C00854D0D00000000000000000045450D001B
:10531C0047450D00626175640053657269616C00EC
:10532C0053657269616C31007479706500706172DB
:10533C00616D00636D6400696400686E6400737471
:10534C00726D0066696C74006C766C006164644804
:10535C00616E646C65720072656D6F766548616E26
:10536C00646C657200656E756D48616E646C657217
:10537C0073004A534F4E53747265616D4C6F67489E
:10538C00616E646C6572006170700025303130752F
:10539C0020005D20002564002C200028293A2000E4
:1053AC00205B00636F6465203D2000256900646507
:1053BC007461696C73203D20000D0A0066006C6EF0
:1053CC0000666E00636F64650064657461696C00EF
:1053DC006E6F6E6500747261636500696E666F0056
:1053EC007761726E006572726F720070616E6963C4
:1053FC0000616C6C005A00252B3033643A25303236
:10540C00750025592D256D2D25645425483A254DBB
:10541C003A2553257A0061736374696D6500000049
:10542C000000000000000000A5470D0095470D008E
:10543C0097470D0000000000000000007D480D00A3
:10544C00CD480D00DB480D00AD450D00B9480D00F1
:10545C007F480D0095480D00C7480D00AB480D0066
:10546C0079480D00000000000000000081490D008B
:10547C00D1490D00DF490D00AD450D0095490D00DA
:10548C00B7490D00A3490D00CB490D0083490D0010
:10549C0087490D000000000000000000B94A0D0013
:1054AC00034B0D00DB4A0D00BB4A0D00E34A0D0017
:1054BC00EB4A0D00F34A0D00FB4A0D000000000002
:1054CC00000000009B4B0D00914B0D00874B0D0015
:1054DC007D4B0D00714B0D00654B0D00594B0D00B4
:1054EC00514B0D00474B0D003D4B0D00854D0D00F4
:1054FC000000000000000000FF4C0D00F54C0D00FA
:10550C00EB4C0D00A14C0D00DF4C0D00D34C0D00ED
:10551C00C74C0D00BF4C0D00B54C0D00AB4C0D0035
:10552C00854D0D0000000000000000001D4D0D0019
:10553C00274D0D00314D0D003B4D0D00454D0D001F
:10554C00514D0D005D4D0D00694D0D00714D0D005F
:10555C007B4D0D00854D0D0000000000000000008B
:10556C00000000000000000000000000000000002F
:10557C00000000000000000000000000000000001F
:10558C00000000000000000000000000000000000F
:10559C0000000000000000000000000000000000FF
:1055AC0000000000000000000000000000000000EF
:1055BC000000000000000000430000005D410D00F1
:1055CC0031450D0085450D009D450D005D460D00D6
:1055DC006D460D00A5460D00514C0D00094D0D00FA
:1055EC00514E0D00014F0D00954F0D0019500D003F
:1055FC00DD500D00A1510D00000000000000000066
:04560C00000000009A
:105610000700000022540D000000000064550D003A
:1056200084550D00A4550D0000000000000000008E
:105630000000000000000000C4550D000000000044
:10564000000000000000000000000000000000005A
:10565000000000000000000000000000000000004A
:10566000000000000000000000000000000000003A
:0C567000000000000000000060E40320C7
:10567C00FFFFFFFF00000102030405060708090AEB
:10568C000B0C0D0E0F101112131415161718191AE6
:08569C001B1C1D1E1F2028002D
:0456A40078563412EE
:04000003D000401CCD
:00000001FF
