:02000002D0002C
:1040000000400D0064560D00000006000C00050184
:0840100004017E050000000020
:0440180090520D00B5
:10401C0009480A49884208B505D0094A824202D0AB
:10402C00121A01F0EBF80748074A0021121A01F0A6
:10403C00F0F8014808BD00BF58E30320D0550D002F
:10404C00C4E30320C4E30320F0E7032070B500F0C1
:10405C007FFB074C074BE41AA40800251E46A5421B
:10406C0004D056F8253098470135F8E770BD00BFED
:10407C00CC550D0090550D0000F014B808B500F0AB
:10408C001FF8BDE8084000F031BB00F00DBA00F09D
:10409C000BBA0078B0FA80F0400970470123037026
:1040AC007047000010B5054C0121208800F0DCFEA3
:1040BC0020880021BDE8104000F0E7BE58E3032043
:1040CC0010B5214C0121208800F0DFFE4FF4FA607E
:1040DC0000F0CEFA0021208800F0D7FE4FF4FA70E1
:1040EC0000F0C6FA0121208800F0CFFE4FF4FA70E0
:1040FC0000F0BEFA0021208800F0C7FE4FF4FA70E1
:10410C0000F0B6FA0121208800F0BFFE4FF4FA70DF
:10411C0000F0AEFA0021208800F0B7FE4FF4FA70E0
:10412C0000F0A6FA0121208800F0AFFE4FF4FA60EF
:10413C0000F09EFA2088002100F0A7FE4FF47A6070
:10414C00BDE8104000F094BA58E3032000F010B81A
:10415C0008B5024B1B689B68019308BD68020300FD
:10416C0008B5024B1B68DB68019308BD68020300AD
:10417C0008B5024B1B681B68019308BD2C02030099
:10418C0008B5024B1B689B68019308BD2C02030009
:10419C0008B5024B1B68DB68019308BD2C020300B9
:1041AC0008B5024B1B681B69019308BD2C02030068
:1041BC0008B5024B1B68DB69019308BD3002030094
:1041CC0008B5024B1B681B6A019308BD3002030043
:1041DC0008B5024B1B685B68019308BD180203000D
:1041EC0008B5024B1B685B69019308BD18020300FC
:1041FC0008B5024B1B689B68019308BD480203007D
:10420C0008B5024B1B681B69019308BD48020300EB
:10421C0008B5024B1B685B69019308BD480203009B
:10422C0008B5024B1B681B6B019308BD48020300C9
:10423C0008B5024B1B685B6C019308BD4802030078
:10424C0008B5024B1B685B69019308BD640203004F
:10425C0008B5024B1B681B68019308BD3C020300A8
:10426C0008B5024B1B68DB68019308BD3C020300D8
:10427C0008B5024B1B681B69019308BD3C02030087
:10428C0008B5024B1B685B69019308BD3C02030037
:10429C0008B5024B1B689B69019308BD3C020300E7
:1042AC0008B5024B1B68DB69019308BD3C02030097
:1042BC0008B5024B1B681B6A019308BD3C02030046
:1042CC0008B5024B1B689B6A019308BD3C020300B6
:1042DC0008B5024B1B681B6A019308BD280203003A
:1042EC0008B5024B1B685B6A019308BD28020300EA
:1042FC0008B5024B1B689B6A019308BD280203009A
:10430C0008B5024B1B68DB6A019308BD2802030049
:10431C0008B5024B1B681B6B019308BD28020300F8
:10432C0008B5024B1B685B6B019308BD28020300A8
:10433C0008B5024B1B681B6C019308BD28020300D7
:10434C0008B5024B1B681B68019308BD4C020300A7
:10435C0008B5024B1B681B69019308BD4C02030096
:10436C0008B5024B1B685B69019308BD4C02030046
:10437C0008B5024B1B689B69019308BD4C020300F6
:10438C0008B5024B1B68DB69019308BD4C020300A6
:10439C0008B5024B1B681B6A019308BD4C02030055
:1043AC0008B5024B1B685B68019308BD2002030033
:1043BC0008B5024B1B685B69019308BD2002030022
:1043CC0008B5034B1B68D3F88830019308BD000077
:1043DC002002030008B5034B1B68D3F894300193FB
:1043EC0008BD00002002030008B5024B1B685B6887
:1043FC00019308BD4002030008B5024B1B689B6883
:10440C00019308BD4002030008B5024B1B68DB6832
:10441C00019308BD4002030008B5024B1B681B69E1
:10442C00019308BD4002030008B5024B1B685B6991
:10443C00019308BD4002030008B5024B1B689B6941
:10444C00019308BD4002030008B5024B1B68DB69F1
:10445C00019308BD4002030008B5024B1B681B6AA0
:10446C00019308BD4002030008B5024B1B681B6B8F
:10447C00019308BD4002030008B5024B1B685B6B3F
:10448C00019308BD4002030008B5024B1B68DB6BAF
:10449C00019308BD4402030008B5024B1B681B685E
:1044AC00019308BD1C02030008B5024B1B685B6836
:1044BC00019308BD1C020300002211464068FFF75F
:1044CC00CBBF002211464068FFF7D6BF00224068E0
:1044DC00FFF7CABF002281F001014068FFF7B4BFAB
:1044EC0000231A4619464068FFF7A6BF00231A4658
:1044FC0019464068FFF798BF002211464068FFF745
:10450C008BBF002211464068FFF776BF00220221C4
:10451C004068FFF779BF00231A464068FFF764BF75
:10452C00024B03225A60024A1A607047C8E3032008
:10453C00AC520D00704710B51021044600F005FD7B
:10454C00204610BD70B5084B0360044600250E468E
:10455C0040F80C5FFFF764FE30462671FFF728FE2B
:10456C00A560204670BD00BFE0520D000079FFF73A
:10457C0027BE0000044B00204FF6FF7218705880C5
:10458C009A80FFF70DBF00BFD0E303200248002341
:10459C000360FFF74DBE00BFD8E30320F8B5064615
:1045AC000D468F180024BD420CD0336815F8011B42
:1045BC009B6830469847002801DB0444F3E7002C45
:1045CC0008BF04462046F8BD70B505460C460846A3
:1045DC0049B100F04FFE2B68024621462846DB68A5
:1045EC00BDE87040184770BD03689B68184730B52C
:1045FC008BB00B4600218DF82410012A98BF0A229B
:10460C000DF12304B3FBF2F505FB123303F0FF03AA
:10461C00092B94BF30333733DBB2214604F8013910
:10462C002B46002DEED1FFF7CFFF0BB030BD10B4F1
:10463C002AB903685DF8044B9B68C9B21847D2B21B
:10464C005DF8044BFFF7D3BFFFF7F1BF014B024AF4
:10465C001A607047DCE303205B530D00024B1A68B1
:10466C00024B1A60704700BF5CE30320E0E30320B9
:10467C000021FFF79DBE10B58368044613B10322D9
:10468C0001469847204610BD10B50446FFF7F3FFCE
:10469C00204610BD0348044A04490023836000F0FF
:1046AC004FBC00BFE4E30320C4E3032095460D0098
:1046BC0008B50C4B33B100F035F903681B6998470A
:1046CC00002809DC084B63B100F0AEF903681B69E4
:1046DC009847002803DC08BDAFF30080F2E7AFF386
:1046EC00008008BD000000000000000008B5FFF7C6
:1046FC00DFFFFFF775FD014B186008BD34E70320A1
:10470C0007B5002300931A466FF07701FFF762FE9E
:10471C0003B05DF804FB000007B543880A2B08D0F2
:10472C00502B09D1094B1B683BB103B05DF804EB6E
:10473C001847FFF7E5FF06E0002300931A466FF0D9
:10474C007701FFF747FE03B05DF804FBF4E30320A9
:10475C0010B5FFF73DFD044600F064FD074B13B1A7
:10476C002046AFF3008000210448FFF78DFE0021A6
:10477C000348BDE81040FFF723BE00BF0000000057
:10478C0025470D00704710B51821044600F0DDFBDD
:10479C00204610BDF0B5037D062B8DB00E4600F102
:1047AC0004074FF0000402D000F1080518E00CAD2E
:1047BC00394605F8304D2F232A460A20FFF740FDD5
:1047CC00284600F057FD33680246DB682946304620
:1047DC0098470FE024B12E213046FFF705FF044423
:1047EC0015F8011D0A223046FFF72EFFBD42044486
:1047FC00F0D120460DB0F0BD10B5054B044611228A
:10480C0040F8043B002100F004FD204610BD00BF21
:10481C00FC530D000346074A10B543F8042B01F175
:10482C00100251F8044B43F8044B9142F9D10A7829
:10483C001A7010BDFC530D0010B59DF8084044EAE9
:10484C00032343EA024242EA0161042341600375F7
:10485C0010BD37B50D788B784A78C9780091294608
:10486C00FFF7EAFF03B030BD41747047704708B5DD
:10487C000021007CFFF77CFD30EA200028BF4FF0C0
:10488C00FF3008BD08B50121007CFFF771FD30EA4F
:10489C00200028BF4FF0FF3008BD08B5007CFFF7A3
:1048AC005FFD20EAE07008BD08B5007CFFF750FD05
:1048BC0020EAE07008BD007CFFF76ABD10B514213A
:1048CC00044600F042FB204610BD38B50446007C7F
:1048DC000D46FFF745FD002801DC607C28B1294618
:1048EC00207CFFF74DFD20EAE07038BD10B5044682
:1048FC00002363604FF47A73A360054B236001239C
:10490C000846217463741146FFF71AFD204610BD4A
:10491C0010540D0010B514220446002100F079FC4F
:10492C00204610BD30B50E4D87B001A8FFF7F2FF41
:10493C00296811F0010410D12846FFF7AAFB60B1D9
:10494C0001AA21460748FFF7D1FF2846FFF7A6FB2F
:10495C00054A0649034800F0F3FA024807B030BD97
:10496C00F8E30320FCE30320C4E3032079480D00A3
:10497C0070474174704708B5007CFFF7A1FC20EA32
:10498C00E07008BD08B5007CFFF772FC20EAE0700F
:10499C0008BD08B5007CFFF77BFC30EA200028BF7F
:1049AC004FF0FF3008BD08B5007CFFF769FC30EA1A
:1049BC00200028BF4FF0FF3008BD007CFFF770BC13
:1049CC0010B51421044600F0C0FA204610BD70B595
:1049DC00457C04460E4625B9007CFFF771FC002887
:1049EC0005DD3146207CBDE87040FFF739BC284618
:1049FC0070BD000010B504460846114600226260E6
:104A0C004FF47A72A260054A22600122207462740B
:104A1C001A46FFF71DFC204610BD00BF40540D0088
:104A2C00007CFFF745BC000038B50C4D296811F02F
:104A3C00010411D12846FFF72CFB68B1084A094B39
:104A4C0009482146FFF7D6FF2846FFF727FB074A00
:104A5C000749054800F074FA034838BDA8E4032060
:104A6C00ACE4032024E4032010E40320C4E303207B
:104A7C007D490D007047F8B5064615460C468F1853
:104A8C00BC4206D0336814F8011B9B68304698472B
:104A9C00F6E72846F8BD0022007CFFF719BC002180
:104AAC00007CFFF71DBC0021007CFFF721BC00211E
:104ABC00007CFFF725BC0021007CFFF729BC10B55A
:104ACC001421044600F041FA204610BD10B50446EE
:104ADC004FF47A730846A3600021044B2074616084
:104AEC002360FFF725FC204610BD00BF70540D005D
:104AFC000021007CFFF714BC002211464068FFF730
:104B0C00ABBC002211464068FFF7B6BC00224068DF
:104B1C00FFF7AABC002281F001014068FFF794BCAA
:104B2C0000231A4601214068FFF786BC00231A4671
:104B3C0019464068FFF778BC002211464068FFF721
:104B4C006BBC002211464068FFF756BC00220221C4
:104B5C004068FFF759BC00231A464068FFF744BC75
:104B6C0038B5054688B104684CB1A3681BB1032263
:104B7C002146204698471021204600F0E6F92846A9
:104B8C001421BDE8384000F0E0B938BD10B103681D
:104B9C005B681847704710B503680446BBB158688A
:104BAC00FFF726FB78B923685A7C12B95868FFF7CF
:104BBC0027FB23685868FFF72BFB20680023236032
:104BCC0028B1FFF7CDFF206808B1FFF7C9FF2046D9
:104BDC0010BD000038B50C4B03600446D0F8CC0176
:104BEC0008B1FFF754FAD4F8C45135B12846FFF791
:104BFC00D2FF0421284600F0A8F9A06808B1FFF7FD
:104C0C00C5FF204638BD00BF98540D0038B50E4C7A
:104C1C000E4B23600025022304F5E4706360A5604D
:104C2C00C4F8C451C4F8C851FFF702FB084BC4F8D0
:104C3C00CC5184F8D05123602046064A0649BDE881
:104C4C00384000F07DB900BF30E5032000550D0061
:104C5C0098540D00C4E30320E14B0D0000221146D3
:104C6C004068FFF7D9BB002211464068FFF7F4BB40
:104C7C00002211464068FFF7FFBB00224068FFF797
:104C8C00F3BB002281F001014068FFF7DDBB00237C
:104C9C001A4619464068FFF7CFBB00231A4619463F
:104CAC004068FFF7C1BB002211464068FFF7A4BB68
:104CBC00002202214068FFF7A7BB00231A46406878
:104CCC00FFF792BB024B04225A60024A1A607047EB
:104CDC0004E70320CC540D0000231A464068FFF76C
:104CEC0083BB002202214068FFF78EBB00221146D5
:104CFC004068FFF781BB002211464068FFF78CBB70
:104D0C0000231A4619464068FFF78EBB00231A464B
:104D1C0019464068FFF790BB002281F00101406802
:104D2C00FFF792BB00224068FFF79EBB00221146A2
:104D3C004068FFF7A1BB002211464068FFF78CBB0F
:104D4C002DE9F043002495B016460D460746FFF7B3
:104D5C0053FD214620220CA8009400F05AFA40235F
:104D6C000C9321466B460CAA3046FFF7F9F9044622
:104D7C00002844D1024601216868FFF74DFB02214F
:104D8C00804622466868FFF747FB009E8146214615
:104D9C00002E34D0002932D17368022B02D00A2B9A
:104DAC0009D02AE0B8F1000F27D0716938460431D8
:104DBC00FFF74FFD20E0B9F1000F1ED074691122EE
:104DCC0001A800F026FA06238DF8143001AD04F189
:104DDC0008031834186859682A4603C20833A342DA
:104DEC001546F7D101A906A807ADFFF713FD0FCDA6
:104DFC003C1D0FC42B6823700121F669C8E700988D
:104E0C00FFF7A6F9384615B0BDE8F083024B034A0C
:104E1C001A6000225A6070470CE7032000550D0001
:104E2C0010B504460F48FFF7A1FB28B1A4F10B0302
:104E3C00022B01D8002010BD00F062F8FFF758FEDD
:104E4C0008B1012CF6D9FFF7EFFDFFF7E9FD18B11A
:104E5C00A4F10903012BEDD9232C8CBF00200120D8
:104E6C0010BD00BF14E70320232838B504460D46B7
:104E7C000AD8FF2908D0FFF7D3FF28B129462046CE
:104E8C00BDE83840FFF77CB938BD38B504460D464F
:104E9C00FFF77EF9FF2810D0062804D84D2323FAFB
:104EAC0000F0C30709D42046FFF7BAFF28B1294602
:104EBC002046BDE83840FFF773B938BD70B50C4CCF
:104ECC000C4E0D4D00212046FFF73CFB20460B4CB1
:104EDC003246294600F034F801212046FFF732FB18
:104EEC00324629462046BDE8704000F029B800BF84
:104EFC0014E70320C4E3032041450D0024E70320FD
:104F0C0038B50B4D296811F001040FD12846FFF775
:104F1C00C0F858B121460748FFF7D8FD2846FFF7DF
:104F2C00BDF8054A0549034800F00AF8014838BDA8
:104F3C0038E703203CE70320C4E30320814A0D003B
:104F4C000B460146184600F04BB9FFF79EB800001F
:104F5C00184B1A68D1075CBF01221A60164B1A68ED
:104F6C00D2075CBF01221A60144B1A68D0075CBFD1
:104F7C0001221A60124B1A68D1075CBF01221A6019
:104F8C00104B1A68D2075CBF01221A600E4B1A68CC
:104F9C00D0075CBF01221A600C4B1A68D1075CBFAA
:104FAC0001221A600A4B1A68D2075CBF01221A60F0
:104FBC00704700BF6CE7032068E7032064E7032019
:104FCC0060E703205CE7032058E7032054E7032045
:104FDC0050E70320244B1A68D0075CBF01221A60EB
:104FEC00224B1A68D1075CBF01221A60204B1A6849
:104FFC00D2075CBF01221A601E4B1A68D0075CBF37
:10500C0001221A601C4B1A68D1075CBF01221A607E
:10501C001A4B1A68D2075CBF01221A60184B1A6827
:10502C00D0075CBF01221A60164B1A68D1075CBF0F
:10503C0001221A60144B1A68D2075CBF01221A6055
:10504C00124B1A68D0075CBF01221A60104B1A6809
:10505C00D1075CBF01221A600E4B1A68D2075CBFE5
:10506C0001221A60704700BF9CE7032098E70320D9
:10507C0094E7032090E703208CE7032088E70320C4
:10508C0084E7032080E703207CE7032078E70320F4
:10509C0074E7032070E70320244B1A68D0075CBF29
:1050AC0001221A60224B1A68D1075CBF01221A60D8
:1050BC00204B1A68D2075CBF01221A601E4B1A687B
:1050CC00D0075CBF01221A601C4B1A68D1075CBF69
:1050DC0001221A601A4B1A68D2075CBF01221A60AF
:1050EC00184B1A68D0075CBF01221A60164B1A685D
:1050FC00D1075CBF01221A60144B1A68D2075CBF3F
:10510C0001221A60124B1A68D0075CBF01221A6088
:10511C00104B1A68D1075CBF01221A600E4B1A683B
:10512C00D2075CBF01221A60704700BFCCE7032096
:10513C00C8E70320C4E70320C0E70320BCE7032033
:10514C00B8E70320B4E70320B0E70320ACE7032063
:10515C00A8E70320A4E70320A0E70320184B1A6854
:10516C00D1075CBF01221A60164B1A68D2075CBFCC
:10517C0001221A60144B1A68D0075CBF01221A6016
:10518C00124B1A68D1075CBF01221A60104B1A68C7
:10519C00D2075CBF01221A600E4B1A68D0075CBFA5
:1051AC0001221A600C4B1A68D1075CBF01221A60ED
:1051BC000A4B1A68D2075CBF01221A60704700BF05
:1051CC00ECE70320E8E70320E4E70320E0E7032013
:1051DC00DCE70320D8E70320D4E70320D0E7032043
:1051EC0010B5054C13462CB10A4601460220AFF30C
:1051FC00008010BD204610BD0000000010B5431EFD
:10520C000A44914204D011F8014B03F8014FF8E71E
:10521C0010BD02440346934202D003F8011BFAE787
:10522C007047000038B5124B1C68A36B0546D3B908
:10523C001820FFF731F943F20E33A06303804AF6CE
:10524C00CD33438041F2342383804EF26D63C380AF
:10525C004DF6EC630381052343810B2383810122EB
:10526C000023C0E90423A36B00221D615A6138BDE1
:10527C00C0E30320034613F8012B002AFBD1181AB4
:10528C00013870471D400D0059400D0085400D0040
:10529C0089400D000000000000000000000000002C
:1052AC0023450D0019450D000F450D0005450D005A
:1052BC00F9440D00ED440D00E1440D00D9440D00FE
:1052CC00CF440D00C5440D004D4D0D0000000000F5
:1052DC000000000041450D0043450D0062617564FE
:1052EC000053657269616C0053657269616C3100C1
:1052FC007479706500706172616D00636D64006932
:10530C006400686E64007374726D0066696C74007E
:10531C006C766C0061646448616E646C65720072DA
:10532C00656D6F766548616E646C657200656E754F
:10533C006D48616E646C657273004A534F4E5374C2
:10534C007265616D4C6F6748616E646C657200616B
:10535C00707000253031307520005D200025640010
:10536C002C200028293A2000205B00636F64652004
:10537C003D200025690064657461696C73203D20D3
:10538C00000D0A0066006C6E00666E00636F64654B
:10539C000064657461696C006E6F6E650074726197
:1053AC00636500696E666F007761726E006572727C
:1053BC006F720070616E696300616C6C005A00253D
:1053CC002B3033643A253032750025592D256D2D3F
:1053DC0025645425483A254D3A2553257A006173A6
:1053EC006374696D6500000000000000000000009F
:1053FC00A1470D0091470D0093470D0000000000E0
:10540C000000000079480D00C9480D00D7480D0078
:10541C00A9450D00B5480D007B480D0091480D00C5
:10542C00C3480D00A7480D0075480D000000000092
:10543C00000000007D490D00CD490D00DB490D0039
:10544C00A9450D0091490D00B3490D009F490D0070
:10545C00C7490D007F490D0083490D000000000075
:10546C0000000000814A0D00CB4A0D00A34A0D003C
:10547C00834A0D00AB4A0D00B34A0D00BB4A0D0028
:10548C00C34A0D000000000000000000634B0D003B
:10549C00594B0D004F4B0D00454B0D00394B0D007A
:1054AC002D4B0D00214B0D00194B0D000F4B0D001A
:1054BC00054B0D004D4D0D000000000000000000DC
:1054CC00C74C0D00BD4C0D00B34C0D00694C0D00CC
:1054DC00A74C0D009B4C0D008F4C0D00874C0D0004
:1054EC007D4C0D00734C0D004D4D0D000000000067
:1054FC0000000000E54C0D00EF4C0D00F94C0D00C8
:10550C00034D0D000D4D0D00194D0D00254D0D00D9
:10551C00314D0D00394D0D00434D0D004D4D0D001D
:10552C00000000000000000000000000000000006F
:10553C00000000000000000000000000000000005F
:10554C00000000000000000000000000000000004F
:10555C00000000000000000000000000000000003F
:10556C00000000000000000000000000000000002F
:10557C00000000000000000000000000000000001F
:10558C004300000059410D002D450D0081450D00D3
:10559C0099450D0059460D0069460D00A1460D00B8
:1055AC00194C0D00D14C0D00194E0D00C94E0D00BB
:1055BC005D4F0D00E14F0D00A5500D0069510D0020
:0455CC0000000000DB
:1055D00007000000EA530D00000000002C550D00EC
:1055E0004C550D006C550D0000000000000000003F
:1055F00000000000000000008C550D0000000000BD
:10560000000000000000000000000000000000009A
:10561000000000000000000000000000000000008A
:10562000000000000000000000000000000000007A
:0C563000000000000000000060E3032008
:10563C00FFFFFFFF00000102030405060708090A2B
:10564C000B0C0D0E0F101112131415161718191A26
:08565C001B1C1D1E1F2028006D
:04566400785634122E
:04000003D000401CCD
:00000001FF
